{
  "contractName": "MemberRole",
  "abi": [
    {
      "inputs": [],
      "stateMutability": "nonpayable",
      "type": "constructor"
    },
    {
      "anonymous": false,
      "inputs": [
        {
          "indexed": false,
          "internalType": "address",
          "name": "member",
          "type": "address"
        },
        {
          "indexed": false,
          "internalType": "uint256",
          "name": "activationTime",
          "type": "uint256"
        },
        {
          "indexed": false,
          "internalType": "string",
          "name": "roleType",
          "type": "string"
        }
      ],
      "name": "RoleAdded",
      "type": "event"
    },
    {
      "anonymous": false,
      "inputs": [
        {
          "indexed": false,
          "internalType": "address",
          "name": "member",
          "type": "address"
        },
        {
          "indexed": false,
          "internalType": "bool",
          "name": "newRole",
          "type": "bool"
        },
        {
          "indexed": false,
          "internalType": "uint256",
          "name": "timestamp",
          "type": "uint256"
        }
      ],
      "name": "StateChanged",
      "type": "event"
    },
    {
      "inputs": [
        {
          "internalType": "uint256",
          "name": "",
          "type": "uint256"
        }
      ],
      "name": "addresses",
      "outputs": [
        {
          "internalType": "address",
          "name": "",
          "type": "address"
        }
      ],
      "stateMutability": "view",
      "type": "function",
      "constant": true
    },
    {
      "inputs": [],
      "name": "membersCount",
      "outputs": [
        {
          "internalType": "uint256",
          "name": "",
          "type": "uint256"
        }
      ],
      "stateMutability": "view",
      "type": "function",
      "constant": true
    },
    {
      "inputs": [
        {
          "internalType": "uint256",
          "name": "",
          "type": "uint256"
        }
      ],
      "name": "roleTypes",
      "outputs": [
        {
          "internalType": "string",
          "name": "",
          "type": "string"
        }
      ],
      "stateMutability": "view",
      "type": "function",
      "constant": true
    },
    {
      "inputs": [],
      "name": "roleTypesCount",
      "outputs": [
        {
          "internalType": "uint256",
          "name": "",
          "type": "uint256"
        }
      ],
      "stateMutability": "view",
      "type": "function",
      "constant": true
    },
    {
      "inputs": [
        {
          "internalType": "address",
          "name": "",
          "type": "address"
        }
      ],
      "name": "userRole",
      "outputs": [
        {
          "internalType": "uint256",
          "name": "activationTime",
          "type": "uint256"
        },
        {
          "internalType": "bool",
          "name": "isActive",
          "type": "bool"
        },
        {
          "internalType": "string",
          "name": "roleType",
          "type": "string"
        }
      ],
      "stateMutability": "view",
      "type": "function",
      "constant": true
    },
    {
      "inputs": [],
      "name": "getAllRoleTypes",
      "outputs": [
        {
          "internalType": "string[]",
          "name": "",
          "type": "string[]"
        }
      ],
      "stateMutability": "view",
      "type": "function",
      "constant": true
    },
    {
      "inputs": [],
      "name": "getAllAdressess",
      "outputs": [
        {
          "internalType": "address[]",
          "name": "",
          "type": "address[]"
        }
      ],
      "stateMutability": "view",
      "type": "function",
      "constant": true
    },
    {
      "inputs": [
        {
          "internalType": "address",
          "name": "_member",
          "type": "address"
        },
        {
          "internalType": "uint256",
          "name": "_roleType",
          "type": "uint256"
        }
      ],
      "name": "addRole",
      "outputs": [],
      "stateMutability": "nonpayable",
      "type": "function"
    },
    {
      "inputs": [
        {
          "internalType": "address",
          "name": "_member",
          "type": "address"
        },
        {
          "internalType": "bool",
          "name": "_newState",
          "type": "bool"
        }
      ],
      "name": "changeRoleStatus",
      "outputs": [],
      "stateMutability": "nonpayable",
      "type": "function"
    },
    {
      "inputs": [
        {
          "internalType": "string",
          "name": "_roleType",
          "type": "string"
        }
      ],
      "name": "addRoleType",
      "outputs": [],
      "stateMutability": "nonpayable",
      "type": "function"
    }
  ],
  "bytecode": "0x608060405234801561001057600080fd5b50336000806101000a81548173ffffffffffffffffffffffffffffffffffffffff021916908373ffffffffffffffffffffffffffffffffffffffff160217905550611b6c806100606000396000f3fe608060405234801561001057600080fd5b506004361061009e5760003560e01c8063968923a411610066578063968923a4146101495780639a496a3c14610165578063acf517cb14610183578063be09174d146101a1578063edf26d9b146101d15761009e565b8063101c33c0146100a3578063297f9af0146100c15780634caa94db146100df578063534f5680146100fb5780637fde1c8a1461012d575b600080fd5b6100ab610201565b6040516100b89190610e78565b60405180910390f35b6100c9610368565b6040516100d69190610eb3565b60405180910390f35b6100f960048036038101906100f49190610f78565b61036e565b005b61011560048036038101906101109190610fb8565b61061e565b6040516101249392919061103e565b60405180910390f35b610147600480360381019061014291906110a8565b6106dd565b005b610163600480360381019061015e919061121d565b6109f7565b005b61016d610b19565b60405161017a9190610eb3565b60405180910390f35b61018b610b1f565b6040516101989190611324565b60405180910390f35b6101bb60048036038101906101b69190611346565b610c3b565b6040516101c89190611373565b60405180910390f35b6101eb60048036038101906101e69190611346565b610ce7565b6040516101f891906113a4565b60405180910390f35b606060008054906101000a900473ffffffffffffffffffffffffffffffffffffffff1673ffffffffffffffffffffffffffffffffffffffff163373ffffffffffffffffffffffffffffffffffffffff1614610291576040517f08c379a00000000000000000000000000000000000000000000000000000000081526004016102889061140b565b60405180910390fd5b6001805480602002602001604051908101604052809291908181526020016000905b8282101561035f5783829060005260206000200180546102d29061145a565b80601f01602080910402602001604051908101604052809291908181526020018280546102fe9061145a565b801561034b5780601f106103205761010080835404028352916020019161034b565b820191906000526020600020905b81548152906001019060200180831161032e57829003601f168201915b5050505050815260200190600101906102b3565b50505050905090565b60045481565b60008054906101000a900473ffffffffffffffffffffffffffffffffffffffff1673ffffffffffffffffffffffffffffffffffffffff163373ffffffffffffffffffffffffffffffffffffffff16146103fc576040517f08c379a00000000000000000000000000000000000000000000000000000000081526004016103f39061140b565b60405180910390fd5b600073ffffffffffffffffffffffffffffffffffffffff168273ffffffffffffffffffffffffffffffffffffffff160361046b576040517f08c379a0000000000000000000000000000000000000000000000000000000008152600401610462906114d7565b60405180910390fd5b6000600360008473ffffffffffffffffffffffffffffffffffffffff1673ffffffffffffffffffffffffffffffffffffffff16815260200190815260200160002060000154036104f0576040517f08c379a00000000000000000000000000000000000000000000000000000000081526004016104e790611569565b60405180910390fd5b801515600360008473ffffffffffffffffffffffffffffffffffffffff1673ffffffffffffffffffffffffffffffffffffffff16815260200190815260200160002060010160009054906101000a900460ff16151503610585576040517f08c379a000000000000000000000000000000000000000000000000000000000815260040161057c906115fb565b60405180910390fd5b80600360008473ffffffffffffffffffffffffffffffffffffffff1673ffffffffffffffffffffffffffffffffffffffff16815260200190815260200160002060010160006101000a81548160ff0219169083151502179055507fb965fe859adbfcaf277bb9d21a5de534aa40f5a06a58dbf224de25d789b063a98282426040516106129392919061161b565b60405180910390a15050565b60036020528060005260406000206000915090508060000154908060010160009054906101000a900460ff169080600201805461065a9061145a565b80601f01602080910402602001604051908101604052809291908181526020018280546106869061145a565b80156106d35780601f106106a8576101008083540402835291602001916106d3565b820191906000526020600020905b8154815290600101906020018083116106b657829003601f168201915b5050505050905083565b60008054906101000a900473ffffffffffffffffffffffffffffffffffffffff1673ffffffffffffffffffffffffffffffffffffffff163373ffffffffffffffffffffffffffffffffffffffff161461076b576040517f08c379a00000000000000000000000000000000000000000000000000000000081526004016107629061140b565b60405180910390fd5b600073ffffffffffffffffffffffffffffffffffffffff168273ffffffffffffffffffffffffffffffffffffffff16036107da576040517f08c379a00000000000000000000000000000000000000000000000000000000081526004016107d19061169e565b60405180910390fd5b604051806060016040528042815260200160011515815260200160018381548110610808576108076116be565b5b90600052602060002001805461081d9061145a565b80601f01602080910402602001604051908101604052809291908181526020018280546108499061145a565b80156108965780601f1061086b57610100808354040283529160200191610896565b820191906000526020600020905b81548152906001019060200180831161087957829003601f168201915b5050505050815250600360008473ffffffffffffffffffffffffffffffffffffffff1673ffffffffffffffffffffffffffffffffffffffff1681526020019081526020016000206000820151816000015560208201518160010160006101000a81548160ff021916908315150217905550604082015181600201908161091c9190611899565b509050506002829080600181540180825580915050600190039060005260206000200160009091909190916101000a81548173ffffffffffffffffffffffffffffffffffffffff021916908373ffffffffffffffffffffffffffffffffffffffff160217905550600460008154809291906109969061199a565b91905055507f2d11a6c31a685efcee07cc703c683f35bd414e7dd09aeee874fe401bab830f3a8242600184815481106109d2576109d16116be565b5b906000526020600020016040516109eb93929190611a66565b60405180910390a15050565b60008054906101000a900473ffffffffffffffffffffffffffffffffffffffff1673ffffffffffffffffffffffffffffffffffffffff163373ffffffffffffffffffffffffffffffffffffffff1614610a85576040517f08c379a0000000000000000000000000000000000000000000000000000000008152600401610a7c9061140b565b60405180910390fd5b6000815103610ac9576040517f08c379a0000000000000000000000000000000000000000000000000000000008152600401610ac090611b16565b60405180910390fd5b60056000815480929190610adc9061199a565b9190505550600181908060018154018082558091505060019003906000526020600020016000909190919091509081610b159190611899565b5050565b60055481565b606060008054906101000a900473ffffffffffffffffffffffffffffffffffffffff1673ffffffffffffffffffffffffffffffffffffffff163373ffffffffffffffffffffffffffffffffffffffff1614610baf576040517f08c379a0000000000000000000000000000000000000000000000000000000008152600401610ba69061140b565b60405180910390fd5b6002805480602002602001604051908101604052809291908181526020018280548015610c3157602002820191906000526020600020905b8160009054906101000a900473ffffffffffffffffffffffffffffffffffffffff1673ffffffffffffffffffffffffffffffffffffffff1681526020019060010190808311610be7575b5050505050905090565b60018181548110610c4b57600080fd5b906000526020600020016000915090508054610c669061145a565b80601f0160208091040260200160405190810160405280929190818152602001828054610c929061145a565b8015610cdf5780601f10610cb457610100808354040283529160200191610cdf565b820191906000526020600020905b815481529060010190602001808311610cc257829003601f168201915b505050505081565b60028181548110610cf757600080fd5b906000526020600020016000915054906101000a900473ffffffffffffffffffffffffffffffffffffffff1681565b600081519050919050565b600082825260208201905092915050565b6000819050602082019050919050565b600081519050919050565b600082825260208201905092915050565b60005b83811015610d8c578082015181840152602081019050610d71565b60008484015250505050565b6000601f19601f8301169050919050565b6000610db482610d52565b610dbe8185610d5d565b9350610dce818560208601610d6e565b610dd781610d98565b840191505092915050565b6000610dee8383610da9565b905092915050565b6000602082019050919050565b6000610e0e82610d26565b610e188185610d31565b935083602082028501610e2a85610d42565b8060005b85811015610e665784840389528151610e478582610de2565b9450610e5283610df6565b925060208a01995050600181019050610e2e565b50829750879550505050505092915050565b60006020820190508181036000830152610e928184610e03565b905092915050565b6000819050919050565b610ead81610e9a565b82525050565b6000602082019050610ec86000830184610ea4565b92915050565b6000604051905090565b600080fd5b600080fd5b600073ffffffffffffffffffffffffffffffffffffffff82169050919050565b6000610f0d82610ee2565b9050919050565b610f1d81610f02565b8114610f2857600080fd5b50565b600081359050610f3a81610f14565b92915050565b60008115159050919050565b610f5581610f40565b8114610f6057600080fd5b50565b600081359050610f7281610f4c565b92915050565b60008060408385031215610f8f57610f8e610ed8565b5b6000610f9d85828601610f2b565b9250506020610fae85828601610f63565b9150509250929050565b600060208284031215610fce57610fcd610ed8565b5b6000610fdc84828501610f2b565b91505092915050565b610fee81610f40565b82525050565b600082825260208201905092915050565b600061101082610d52565b61101a8185610ff4565b935061102a818560208601610d6e565b61103381610d98565b840191505092915050565b60006060820190506110536000830186610ea4565b6110606020830185610fe5565b81810360408301526110728184611005565b9050949350505050565b61108581610e9a565b811461109057600080fd5b50565b6000813590506110a28161107c565b92915050565b600080604083850312156110bf576110be610ed8565b5b60006110cd85828601610f2b565b92505060206110de85828601611093565b9150509250929050565b600080fd5b600080fd5b7f4e487b7100000000000000000000000000000000000000000000000000000000600052604160045260246000fd5b61112a82610d98565b810181811067ffffffffffffffff82111715611149576111486110f2565b5b80604052505050565b600061115c610ece565b90506111688282611121565b919050565b600067ffffffffffffffff821115611188576111876110f2565b5b61119182610d98565b9050602081019050919050565b82818337600083830152505050565b60006111c06111bb8461116d565b611152565b9050828152602081018484840111156111dc576111db6110ed565b5b6111e784828561119e565b509392505050565b600082601f830112611204576112036110e8565b5b81356112148482602086016111ad565b91505092915050565b60006020828403121561123357611232610ed8565b5b600082013567ffffffffffffffff81111561125157611250610edd565b5b61125d848285016111ef565b91505092915050565b600081519050919050565b600082825260208201905092915050565b6000819050602082019050919050565b61129b81610f02565b82525050565b60006112ad8383611292565b60208301905092915050565b6000602082019050919050565b60006112d182611266565b6112db8185611271565b93506112e683611282565b8060005b838110156113175781516112fe88826112a1565b9750611309836112b9565b9250506001810190506112ea565b5085935050505092915050565b6000602082019050818103600083015261133e81846112c6565b905092915050565b60006020828403121561135c5761135b610ed8565b5b600061136a84828501611093565b91505092915050565b6000602082019050818103600083015261138d8184611005565b905092915050565b61139e81610f02565b82525050565b60006020820190506113b96000830184611395565b92915050565b7f416363657373206e6f74206772616e7465642e00000000000000000000000000600082015250565b60006113f5601383610ff4565b9150611400826113bf565b602082019050919050565b60006020820190508181036000830152611424816113e8565b9050919050565b7f4e487b7100000000000000000000000000000000000000000000000000000000600052602260045260246000fd5b6000600282049050600182168061147257607f821691505b6020821081036114855761148461142b565b5b50919050565b7f506c6561652070726f7669646520612076616c696420616464726573732e0000600082015250565b60006114c1601e83610ff4565b91506114cc8261148b565b602082019050919050565b600060208201905081810360008301526114f0816114b4565b9050919050565b7f546869732061646472657373206973206e6f7420612076616c6964206d656d6260008201527f6572000000000000000000000000000000000000000000000000000000000000602082015250565b6000611553602283610ff4565b915061155e826114f7565b604082019050919050565b6000602082019050818103600083015261158281611546565b9050919050565b7f546865206d656d62657220697320616c726561647920696e207468697320737460008201527f6174650000000000000000000000000000000000000000000000000000000000602082015250565b60006115e5602383610ff4565b91506115f082611589565b604082019050919050565b60006020820190508181036000830152611614816115d8565b9050919050565b60006060820190506116306000830186611395565b61163d6020830185610fe5565b61164a6040830184610ea4565b949350505050565b7f506c656173652070726f7669646520612076616c696420616464726573732e00600082015250565b6000611688601f83610ff4565b915061169382611652565b602082019050919050565b600060208201905081810360008301526116b78161167b565b9050919050565b7f4e487b7100000000000000000000000000000000000000000000000000000000600052603260045260246000fd5b60008190508160005260206000209050919050565b60006020601f8301049050919050565b600082821b905092915050565b60006008830261174f7fffffffffffffffffffffffffffffffffffffffffffffffffffffffffffffffff82611712565b6117598683611712565b95508019841693508086168417925050509392505050565b6000819050919050565b600061179661179161178c84610e9a565b611771565b610e9a565b9050919050565b6000819050919050565b6117b08361177b565b6117c46117bc8261179d565b84845461171f565b825550505050565b600090565b6117d96117cc565b6117e48184846117a7565b505050565b5b81811015611808576117fd6000826117d1565b6001810190506117ea565b5050565b601f82111561184d5761181e816116ed565b61182784611702565b81016020851015611836578190505b61184a61184285611702565b8301826117e9565b50505b505050565b600082821c905092915050565b600061187060001984600802611852565b1980831691505092915050565b6000611889838361185f565b9150826002028217905092915050565b6118a282610d52565b67ffffffffffffffff8111156118bb576118ba6110f2565b5b6118c5825461145a565b6118d082828561180c565b600060209050601f83116001811461190357600084156118f1578287015190505b6118fb858261187d565b865550611963565b601f198416611911866116ed565b60005b8281101561193957848901518255600182019150602085019450602081019050611914565b868310156119565784890151611952601f89168261185f565b8355505b6001600288020188555050505b505050505050565b7f4e487b7100000000000000000000000000000000000000000000000000000000600052601160045260246000fd5b60006119a582610e9a565b91507fffffffffffffffffffffffffffffffffffffffffffffffffffffffffffffffff82036119d7576119d661196b565b5b600182019050919050565b600081546119ef8161145a565b6119f98186610ff4565b94506001821660008114611a145760018114611a2a57611a5d565b60ff198316865281151560200286019350611a5d565b611a33856116ed565b60005b83811015611a5557815481890152600182019150602081019050611a36565b808801955050505b50505092915050565b6000606082019050611a7b6000830186611395565b611a886020830185610ea4565b8181036040830152611a9a81846119e2565b9050949350505050565b7f546865206e616d6520666f722074686520726f6c652063616e6e6f742062652060008201527f626c616e6b000000000000000000000000000000000000000000000000000000602082015250565b6000611b00602583610ff4565b9150611b0b82611aa4565b604082019050919050565b60006020820190508181036000830152611b2f81611af3565b905091905056fea2646970667358221220fcdef32f6faf538acfe3dd0a896d96b43ca0509b34e3b99b7e05d1864bfeb8eb64736f6c63430008110033",
  "immutableReferences": {},
  "source": "// SPDX-License-Identifier: MIT\n\npragma solidity ^0.8.17;\n\ncontract MemberRole {\n    /** Admin address */\n    address owner;\n\n    /**\n    Struct defining the role for members of the community\n    activationTime - The timestamp from which the role will be enabled\n    isActive - if a role is active or not\n    roleType - the role type through this custom business logic can be built\n    */\n    struct Role {\n        uint256 activationTime;\n        bool isActive;\n        string roleType;\n    }\n\n    /** Dynamic array holding all the roles */\n    string[] public roleTypes;\n\n    /** Dynamic array holding users addresses */\n    address[] public addresses;\n    /** Relationship between users and their role */\n    mapping(address => Role) public userRole;\n\n    /** Total count of users that have a role */\n    uint256 public membersCount;\n    /** Total count of Jur Role Types **/\n    uint256 public roleTypesCount;\n\n    event StateChanged(address member, bool newRole, uint256 timestamp);\n    event RoleAdded(address member, uint256 activationTime, string roleType);\n\n    modifier onlyOwner() {\n        require(msg.sender == owner, \"Access not granted.\");\n        _;\n    }\n\n    constructor() {\n        owner = msg.sender;\n    }\n\n    /**\n     * Adding my own functions to the smart contract\n     */\n    function getAllRoleTypes() public view onlyOwner returns (string[] memory) {\n        return roleTypes;\n    }\n\n    function getAllAdressess()\n        public\n        view\n        onlyOwner\n        returns (address[] memory)\n    {\n        return addresses;\n    }\n\n    /**End */\n\n    /**\n    @dev addRole - allows Admin to assign a Role to a Member\n    @param _member - the address of the member that will get the new role assigned\n    @param _roleType - index of the role in the roleTypes array\n    */\n    function addRole(address _member, uint256 _roleType) public onlyOwner {\n        require(_member != address(0), \"Please provide a valid address.\");\n        userRole[_member] = Role(block.timestamp, true, roleTypes[_roleType]);\n        addresses.push(_member);\n        membersCount++;\n\n        emit RoleAdded(_member, block.timestamp, roleTypes[_roleType]);\n    }\n\n    /**\n    @dev changeRoleStatus - allows Admin to change the status of a Member\n    @param _member - the address of the member whose status will toggle\n    @param _newState -  activate or disable the role\n    */\n    function changeRoleStatus(address _member, bool _newState)\n        public\n        onlyOwner\n    {\n        require(_member != address(0), \"Pleae provide a valid address.\");\n        require(\n            userRole[_member].activationTime != 0,\n            \"This address is not a valid member\"\n        );\n        require(\n            userRole[_member].isActive != _newState,\n            \"The member is already in this state\"\n        );\n        userRole[_member].isActive = _newState;\n\n        emit StateChanged(_member, _newState, block.timestamp);\n    }\n\n    /**\n    @dev addRoleType - allows Admin to add a new role that can be assigned to members\n    logic.\n    @param _roleType - the name for the new role\n    */\n    function addRoleType(string memory _roleType) public onlyOwner {\n        require(\n            bytes(_roleType).length != 0,\n            \"The name for the role cannot be blank\"\n        );\n        roleTypesCount++;\n        roleTypes.push(_roleType);\n    }\n}\n",
  "sourcePath": "/home/humed/humed/assignment/server/contracts/MemberRole.sol",
  "compiler": {
    "name": "solc",
    "version": "0.8.17+commit.8df45f5f.Emscripten.clang"
  },
  "schemaVersion": "3.4.11",
  "updatedAt": "2023-02-14T19:19:14.452Z",
  "networkType": "ethereum",
  "devdoc": {
    "kind": "dev",
    "methods": {
      "addRole(address,uint256)": {
        "details": "addRole - allows Admin to assign a Role to a Member",
        "params": {
          "_member": "- the address of the member that will get the new role assigned",
          "_roleType": "- index of the role in the roleTypes array"
        }
      },
      "addRoleType(string)": {
        "details": "addRoleType - allows Admin to add a new role that can be assigned to members logic.",
        "params": {
          "_roleType": "- the name for the new role"
        }
      },
      "changeRoleStatus(address,bool)": {
        "details": "changeRoleStatus - allows Admin to change the status of a Member",
        "params": {
          "_member": "- the address of the member whose status will toggle",
          "_newState": "-  activate or disable the role"
        }
      }
    },
    "version": 1
  },
  "userdoc": {
    "kind": "user",
    "methods": {
      "addresses(uint256)": {
        "notice": "Dynamic array holding users addresses "
      },
      "getAllRoleTypes()": {
        "notice": "Adding my own functions to the smart contract"
      },
      "membersCount()": {
        "notice": "Total count of users that have a role "
      },
      "roleTypes(uint256)": {
        "notice": "Dynamic array holding all the roles "
      },
      "roleTypesCount()": {
        "notice": "Total count of Jur Role Types *"
      },
      "userRole(address)": {
        "notice": "Relationship between users and their role "
      }
    },
    "version": 1
  }
}